:040000006F10D07538
:1000040000000000000000007E1D0000801D0000B4
:10001400000000005A1F0000000000000000000063
:100024005A1F00005A1F00000000000000000000DA
:100034005A1F0000000000005A1F000000000000CA
:100044005A1F00005A1F00005A1F00005A1F0000C8
:100054005A1F00005A1F00005A1F00005A1F0000B8
:100064005A1F00005A1F00005A1F00005A1F0000A8
:100074005A1F00005A1F00005A1F00005A1F000098
:100084005A1F00005A1F00005A1F00005A1F000088
:100094005A1F00005A1F00005A1F00005A1F000078
:1000A4005A1F00005A1F00005A1F00005A1F000068
:1000B400401D00005A1F00005A1F00005A1F000074
:1000C4005A1F00005A1F00005A1F00005A1F000048
:1000D4005A1F00005A1F00005A1F00005A1F000038
:1000E4005A1F00005A1F00005A1F00005A1F000028
:0C00F4005A1F00005A1F00005A1F000095
:10010000397101436EC619A0397141536AC866CA74
:1001100062CC5ECE19A0397101535AD056D252D456
:100120004ED64AD826DA22DC06DE330161408282CE
:1001300041114AC026C222C406C68282B24D410184
:10014000024D924C224CB24B4101024B924A224A40
:10015000B2494101024992442244B24041018280A5
:100160003D432A876373C3029377F700BDEFADE584
:10017000937606FF3D8ABA960CC34CC30CC74CC796
:100180004107E36BD7FE11E28280B306C3408A06C3
:100190009702000096966780A6002307B700A30683
:1001A000B7002306B700A305B7002305B700A304D3
:1001B000B7002304B700A303B7002303B700A302CB
:1001C000B7002302B700A301B7002301B700A300C3
:1001D000B7002300B700828093F5F50F9396850052
:1001E000D58D93960501D58D61B79396270097021B
:1001F000000096968682E78086FA9680C1171D8F4A
:100200003E96E374C3F8A5B7A5473305F5029307F7
:10021000D007370700401305D5073355F502B70758
:1002200000402392074283574742E3EEA7FE8280B5
:10023000EFF21FF0411185450945EF20203C3704BE
:100240000040C167FD174C00130504403EC402C2C4
:10025000EF20A03C854513050440EF20A04241015A
:10026000D5BDEFF25FEB4111E13785451145EF2038
:100270000037C1473EC6138481818D47B7140140C2
:100280003EC49309840093840480035904004C0005
:10029000268523122101EF103064CA8526850904C2
:1002A000EF10F073E31334FF410145B58D4763E66A
:1002B000A708EFF25FE693F5F57F9397150013D447
:1002C000470013D78700398C3D8C060593878181C1
:1002D0003E95035A05003D889605371901404D8C1F
:1002E000BD4413090980FD5A4A85B3599440D2850B
:1002F000EF10B06D93F919001305A05A639409002B
:100300001305901A11374A85D285EF10506D1305E9
:10031000901A639409001305A05AFD14F535E3956E
:1003200054FD37150140D28513050580EF10306B61
:100330001565130505E2C93D09BD8280EFF25FDF57
:10034000B53709BDEFF2DFDE011185452545EF2008
:100350000029854537052000EF20402A930700300B
:100360007C8237150140F1473EC64C008D4713058E
:1003700005C03EC4EF10505685450945EF10706723
:10038000E1679387076A3EC8B707FFBF375400404D
:100390003ECAB70700043ECC0C0891671305044021
:1003A000FC86EF103074854513050440EF200003F0
:1003B00005614DB3EFF25FD5B7540040AA89AE8A0C
:1003C00032893684138A0440B70502005285EF2033
:1003D000800A7DF91385044085458964370A030046
:1003E000375B0040EF20000193840471050A130B72
:1003F0000B40FD5BD2855A85EF20800655E5FD1444
:10040000E39A74FF93951900B7590040138509408A
:10041000014693F5E50F8964370A0700EF202003B2
:1004200093840471130A2A08938909407D5BD2855D
:100430004E85EF20E00225EDFD14E39A64FFB759E5
:100440000040D685138509408964370A0700EF10FC
:10045000507F93840471130A4A0893890940FD5A16
:10046000D2854E85EF10D07F29E5FD14E39A54FF25
:100470007D14930419004204416A37590040B70AB9
:10048000070041807D1A13090940096B938A4A08C5
:10049000FD5B631244033755004013050540854555
:1004A000EF10F076014519A0B1FC054551B9F5DC16
:1004B00079B7DDFCDDBF83C5F4FF4A8593090B7175
:1004C000EF103078D6854A85EF10907909E9FD194B
:1004D000E39A79FF7D144204850441805DBFE39B6C
:1004E00009FEE1B7EFF25FC237590040AA842E8BB4
:1004F0003284B689130A0940B70502005285EF100D
:1005000090777DF91305094085450969370A03008D
:10051000B75A0040EF10106E13090971050A938A4B
:100520000A40FD5BD2855685EF109073631F05125C
:100530007D19E31979FF8604375A004093F4F40FCC
:1005400013050A400146A6850969B70A0700EF109E
:10055000107013090971938A2A08130A0A40FD5B77
:10056000D6855285EF10D06F631505107D19E319FC
:1005700079FF375A0040DA8513050A400969B70A3E
:100580000700EF10106C13090971938A4A08130AC7
:100590000A407D5BD6855285EF10906C631E050C7A
:1005A0007D19E31969FF375A004013050A40854554
:1005B0000969B70A0300EF10F06313090971850A8E
:1005C000130A0A407D5BD6855285EF10706945E9B4
:1005D0007D19E31A69FFA685B754004005461385C7
:1005E0000440EF10D06685476393F90A13850440F1
:1005F00081450969B7090300EF10106313090971F8
:100600008909938404407D5ACE852685EF10506574
:1006100035E97D19E31A49FF3759004013050940B0
:1006200085458964B7090300EF10705E93840471F7
:1006300093890904130909407D5ACE854A85EF1034
:10064000306221E5FD14E39A44FF3755004013055D
:100650000540EF10505F08A03755004013050540D6
:100660008545EF10705C014521A0E31609EC0545B6
:10067000C1BCE30E09FEF5BDE30B09FE2DB7E3088F
:1006800009FE91BFE30509FE41BFF5D07DBF0969B1
:10069000370A030013090971090A93840440FD5ABB
:1006A000D2852685EF10D05B5DE57D19E31A59FFF1
:1006B000A2844E944204370A0300B7590040418097
:1006C000894A130A0A04938909407D5BB307944061
:1006D000C207C18363E4FA08375900401305094093
:1006E00081450964B7090300EF1010541304047125
:1006F00093890904130909407D5ACE854A85EF1074
:10070000305651E17D14E31A44FF37590040130578
:100710000940EF10505388A085451305094009642E
:10072000B7090300EF10B04E130404719389090454
:10073000130909407D5ACE854A85EF10705239E57C
:100740007D14E31A44FF3755004013050540EF10B0
:10075000904F88B011B7E31D09F411BF096913095F
:100760000971D2854E85EF10B04F19E97D19E31A52
:1007700069FF4E858504EF10104DA38FA4FEB9B715
:10078000E31909FEEDB5E30404EE41B7E30104EE1D
:100790005DBFEFF2FF9941112E84B9460A86930599
:1007A000B003893339E51C8098800545A207D98FAD
:1007B0001EA01C819881A207D98F3EA01C8298821E
:1007C000A207D98F5EA01C839883A207D98F5EA44D
:1007D0001C849884A207D98F7EA01C859885A207C7
:1007E000D98F1EA41C869886A207D98F3EA44101EA
:1007F00095B20145EDBFEFF2BF9341118546130657
:10080000F10093055007F93901E988873915133547
:10081000150041016FF01F940145E5BFEFF25F91B4
:1008200041112A842E89B284F93709E50145410135
:100830006FF05F92930700F885461306F100930569
:10084000B0062285DC87BD3675F113054006EF1032
:100850001079854785461306F1009305B006228579
:10086000DC87893E61F585461306F1009305C006D5
:100870002285A30701003D3E55F90E091379890130
:1008800085461306F100ED452285A30721011D369B
:1008900051FD8E04E18885461306F100F14522855D
:1008A000C487093E41F585461306F100E5452285DA
:1008B000A307010001363DF985461306F100E9451D
:1008C0002285A3070100FD34133515008DB7EFF223
:1008D0003F86411185452145EF107050FD77371453
:1008E00001407C82C1473EC64C008D47130504C0C1
:1008F0003EC4EF10607EBD65130504C0EF10300EDE
:1009000041016FF03F85EFF2BF8289476308F5022E
:1009100063E8A7008547A165630BF5006FF09F832F
:100920008D47630FF50091478565E319F5FE37158F
:100930000140130505C0EF105009CDB79165C5BF43
:100940008965F5B7EFF2CFFE89476308F50263E8E2
:10095000A7008547A165630BF5006FF0AFFF8D47DA
:10096000630FF50091478565E319F5FE37150140E2
:10097000130505C0EF10B006CDB79165C5BF8965F9
:10098000F5B7EFF2EFFABD4763F0A7023715014064
:10099000A165130505C0EF109004094565370D45A5
:1009A00055371145453725A8935425001354150094
:1009B000137915000D8185880588A1651DC137153E
:1009C0000140130505C0EF105000094595C0253FB3
:1009D0000D450DC00D3F1145E30609FC2D376FF0A5
:1009E0006FF737150140130505C0EF10407FF1BFC9
:1009F000913FF9BF813FC5B7930700001CC95CC98F
:100A0000B777000083A747350CC150C114C558C53E
:100A10001CCD5CCD82800CCD50CD8280EFF2AFEF4B
:100A20002A844845EF5080020C402A89EF40D05874
:100A30004C48AA8A4A85EF4040658329C40148C8CA
:100A40002A8ACE85EF403046635FA004232A340112
:100A50004C484840EF4050560C48AA894A85EF4020
:100A6000F07E0C44EF405055AA8423282401CE8503
:100A70005685EF408061A685EF402061004CAA8436
:100A8000AA852285EF40904A634C0500B707008095
:100A90003D8CA6852285EF4010416343A00026844B
:100AA00022856FF08FEAB7040080B3C43401A685B5
:100AB0005285EF40B047E35D05F844C851BFEFF2FF
:100AC0002FE75D711306C0028145481002C402C6BB
:100AD00002C802CA02CC02CE02D0EFF06FE8116564
:100AE00085452505EF10B02F85450545EF10502DA4
:100AF00085451145EF10E06F930700087C8437159A
:100B0000014091473EC82C008D47130505C03EC6E5
:100B1000EF10805CE1679387076A3ECA85673744B8
:100B200001403ECCB7070400938707404C081305EB
:100B300004803ECEB704024023100102EF10303A89
:100B400013858405EF10804A930744803ED2938733
:100B5000018A3ED4E5473ED8930700083EDC930760
:100B60000002BEC24C108D6713858405BEC402D638
:100B700002DA02DE82C082C6EF100051054613057C
:100B8000048093050004EF10F03F1385840585452C
:100B9000EF100053854513050480EF10503D61614F
:100BA0006FF04FDB9387018A94233D476393E612EE
:100BB000982F63100712B0238C33A8339316860046
:100BC000CD8E1387C18B93F6F67F16A3935636000E
:100BD00013165500CC33558ED4231376F67F32A3EB
:100BE0008A061396A500D18E1981F023C98E93F63B
:100BF000F67F56A3858193167600CD8EEC3393F65F
:100C0000F67F76A39356460013964500558E1376CD
:100C1000F67F942712A7903786069D8113159600BC
:100C2000C98ECD8EAC2793F6F67F36A79356260055
:100C300013966500558EB4371376F67F52A79581CB
:100C4000D0378E06CD8ECC27E82776A79316860060
:100C5000CD8E93F6F67F16AB9356360013165500DD
:100C60008C2B558EF4371376F67F32AB8A061396AB
:100C7000A500D18E1981903BC98E93F6F67FA82BE3
:100C800056AB858193167600CD8E93F6F67F76ABC4
:100C90009356460013164500558E1376F67FCC2BDF
:100CA00012AFB43B139695001D818606D18ED03BC2
:100CB000C98EFC2B93F6F67F36AF898193166600BA
:100CC000CD8E8E07158293F6F67FD18F56AF7EAF0D
:100CD0008280EFF2EFC53704024013058405814599
:100CE000EF10003E13058405E545EF10A03E130507
:100CF00084058545EF10C03C37450140B9451305D3
:100D00000580EF10702A6FF0EFC4BD4763E9A700BC
:100D1000931715001385C18B3E950A2182800145EA
:100D20008280EFF24FBF2A84031505004111B2847F
:100D300036C62E89B7790000EF50E00F83A58935BC
:100D4000EF4090272320A90003152400EF50A00EA8
:100D500083A58935EF4050262322A90003154400BE
:100D6000EF50600D83A58935EF4010252324A9009D
:100D70000315640037790000EF50E00B8325C93577
:100D8000EF40902388C003158400EF50C00A8325EC
:100D9000C935EF407022C8C00315A400EF50A00968
:100DA0008325C935EF40502188C40315C400EF5096
:100DB0008008B777000083A50736EF40002DB7778E
:100DC000000083A54736EF40E062B777000083A5B7
:100DD0008736EF40B047B24688C241016FF0EFB6A8
:100DE000EFF20FB201112ACA2ECC3685B6853A8BA6
:100DF000BE8A32CEC284468436C4EF40F01B2A8AB3
:100E0000DA855A85EF40501BAA855285EF40E027CE
:100E10002A8AD6855685EF40301AAA855285EF403A
:100E2000C026EF50A00D06599659EF109036EF509E
:100E3000A017930500002A8AEF40F0066350A04CEB
:100E4000A246D2853685EF40E05A2A8CD2855A8553
:100E5000EF40405AD2852AC45685EF40A05983AD51
:100E60000900032B040083AA0400032A09002A8D29
:100E7000EE855A85EF405014AA8BD2855685EF40F7
:100E8000B013AA855E85EF40703CAA85EF40E01F55
:100E9000AA8BD6855A85EF403012AA8CD2856E85F2
:100EA000EF409011AA856685EF40201EAA85EF408D
:100EB000C01DAA8CD6855685EF401010AA8ADA8507
:100EC0005A85EF40700FAA855685EF403038AA8AC0
:100ED000D2855285EF40500EAA855685EF401037D7
:100EE0002A8AEE856E85EF40300DAA855285EF4047
:100EF000C0192A8AAA852245EF40100CAA8AE685E5
:100F00006A85EF40700BAA855685EF403034AA8D74
:100F1000DE856A85EF40500AAA8AD2856285EF4055
:100F2000B009AA855685EF4070322A8AE685628527
:100F3000EF409008AA8A2245DE85EF40F007AA8597
:100F40005685EF40B030AA8A930500006E85EF40C9
:100F5000B006A657AA858843EF402013A6579305ED
:100F6000000088C35285EF403005B657AA858843F4
:100F7000EF40A011B6579305000088C35685EF4097
:100F8000B003C657AA858843EF402010C65788C3D0
:100F9000377B00008325CB366E85EF40F001A657E6
:100FA0008C43EF40800ED245EF40200E8325CB3698
:100FB0002A8C5285EF405000B657377A00008C4398
:100FC000EF40A00CE245EF40400C8325CB36AA8BC6
:100FD0005685EF40607EC6578C43EF40000BF245CC
:100FE000EF40A00A83250A37AA8A6285EF40C07CB9
:100FF00083250A372A8B5E85EF40007C83250A37DC
:101000002A8C5685EF40407B832C04002A8D832B4D
:10101000090037050080DA8533459501EF40C07936
:10102000AA8ADE85628503AA090083AD0400EF4029
:10103000A078AA855685EF407021AA8AD2856A8554
:10104000EF408077AA855685EF405020B77A0000A0
:1010500083A54A37EF404076EE85EF40000388C015
:10106000EE855A85EF404075DE852AC46A85EF40DB
:10107000A074A247AA853E85EF402001D2852AC4EC
:101080006285EF406073A247AA853E85EF40101C41
:1010900083A54A37EF404072E685EF30107F08C0E5
:1010A000EE856285EF4040712AC4E6856A85EF408F
:1010B000A070A247AA853E85EF405019D2852AC468
:1010C0005A85EF40606FA247AA853E85EF30F07BDE
:1010D00083A54A37EF40406EDE85EF30107B23203A
:1010E000A900EE856A85EF40206D2A8DE685628530
:1010F000EF40806CAA856A85EF303079DE852A8CD6
:101100005A85EF40606BAA856285EF40301483A555
:101110004A37EF40606AD285EF30307723A0A900CC
:101120008C40832B04002A8A2E85EF40E068AA8A2F
:10113000DE855E85EF404068032B0900AA85568551
:10114000EF30B074AA8ADA855A85EF40E066AA8546
:101150005685EF309073D285AA8A5285EF40C065DC
:10116000AA855685EF307072EF405059EF1070022B
:10117000EF409063930500002A8AEF40C052635A03
:10118000A0028840D285EF40E02688C00840D28582
:10119000EF40402608C003250900D285EF40802596
:1011A0002320A90003A50900D285EF40A02423A095
:1011B000A90083A509000840EF40006083250900CD
:1011C0002A8A8840EF40405FAA855285EF40100888
:1011D000B777000083A58737377A0000EF40C05DFE
:1011E000EF40D051EF10E06E03260A3883264A38CC
:1011F000EF30601FEF40505BD65788C3032B0400CD
:10120000832A0900DA855A85EF40005BAA8BD685D0
:101210005685EF40605AAA855E85EF301067AA8533
:10122000EF30B066B77B0000AA8503A5CB37EF404F
:10123000F001EF40B04C2EC68C402AC45A85EF40D6
:10124000A05783A509002A8B5685EF40E056AA8552
:101250005A85EF309063AA85EF303063EF40104A33
:101260002246B246EF10C07203260A3883264A3857
:10127000EF306017EF405053E65788C30329090049
:1012800083A90900CA854A85EF400053AA8ACE8502
:101290004E85EF406052AA855685EF30105FAA85D3
:1012A000EF30B05EAA8503A5CB37EF40207AEF4040
:1012B000F0442EC68C402AC44E85EF40E04F0C40CF
:1012C000AA844A85EF40404FAA852685EF30F05B1F
:1012D000AA85EF30905BEF4070422246B246EF1095
:1012E000206B03260A3883264A38EF30C00FEF40C0
:1012F000B04BF65788C305616FE05FE4930A0000C6
:10130000568AD68D71B1EFE2BFDF75710D468D45FE
:1013100013059006EFF08FD0854763080524130569
:101320009006EFF04FCD894763010524056513054D
:1013300085BBEF10C04AEFF0FF8613071041239AD8
:10134000E1841307E03F2398E18413076040239C66
:10135000E184B77400001307103F239EE18483A744
:10136000C4371304803EBEC093070000BEC2BEC493
:10137000BEC6BEC8BECABECCBECEBED0BED23E89E0
:10138000BE893E8ABE8A3E8BBE8C0C011305900638
:10139000EFF02FC07418D018AC100801EFF07F9850
:1013A000D65B66857D14DE85EF30304E665CAA8C98
:1013B0005A85E285EF30704D76562A8B5685B28578
:1013C00032D6EF30904CDC103ECE9C103ECCFC0868
:1013D0003ECABC083EC8DC083EC69C083EC4FC00B1
:1013E0003EC2BC003657A65632563EC0C65793087A
:1013F000410413080104E285AA8A5E85EFF05F9E2E
:1014000083A5818252854204EF30304883A5C18292
:101410002A8A4E85EF30704783A50183AA894A85C1
:10142000EF30B0462A8941800545EF10403B31FC42
:1014300037740000832544356685EF30B07B832503
:10144000443523A0A1845A85EF30D07A83254435D2
:1014500023A2A1845685EF30F0798325443523A457
:10146000A1845285EF3010798325443523AAA182C7
:101470004E85EF3030788325443523ACA1824A85F0
:10148000EF30507723AEA1821305800CEF1020358A
:10149000B777000003A9873813070000BA863A8699
:1014A000CA851385C194EFF02FD583A5C4371307E0
:1014B0000000BA863A861385C18EEFF0EFD313078A
:1014C0000000BA863A86CA851385C196EFF0CFD25E
:1014D000B777000083A4C73813070000BA863A869E
:1014E000A6851385C190EFF02FD1B777000083A5B3
:1014F000073913070000BA863A861385C198EFF0C2
:10150000AFCF130700003A86BA86A6851385C1922D
:10151000EFF08FCEB777000083A44739032444351A
:101520001385C1942686A285EFF0EFCE2686A2858C
:101530001385C18EEFF02FCE2686A2851385C19626
:10154000EFF06FCD2686A2851385C190EFF0AFCC6A
:101550002686A2851385C198EFF0EFCB2686A2855B
:101560001385C192EFF02FCB81473E8549616FE033
:10157000FFBCEFE25FBA5D719385C18D13059006E4
:10158000EFF02FA15418D0002C181385C18DEFF067
:101590004FF983A581843645EF40404B83A54184B4
:1015A0002AD6264513840183EF40404A83A501844F
:1015B000AA8916459384C18213898182EF4000492C
:1015C000938781863EC8938741863EC6938701866E
:1015D0003EC4938781873EC2938741877257E25604
:1015E00032563EC08647370800209388018713088B
:1015F000080822CE26CC4ACACE85EFF06FFE83A51E
:10160000418303250900EF40604483A581832320A3
:10161000A9008840EF40804388C083A5C18308406B
:10162000EF40C04208C061616FE03FB2EFE25FADE2
:101630004111EFF02FD703D7C18B83D64185938714
:10164000C18B158F2399E184AA2303D7018583D603
:101650008185198DDA23FE23158F239BE18403D71F
:10166000C1854205998F239DF1844185EF30D01AC1
:10167000B77C000003A68C3A83A6CC3A1389C187B5
:10168000EF20E0642A8A03A5C182AE8A138C2185EB
:10169000EF40D0062A86AE865285D685EF10307090
:1016A000EF4090102320A9003779000003A5C184E2
:1016B00083258939938B61859384A185EF40000749
:1016C0009387C187138AC1841384C18E635905002F
:1016D000130600009386C19490C3D0CA50C88C43AF
:1016E0001385C194EFF08FB39387C18DAA890395B9
:1016F0006700B77A0000138BC18DEF40C07383A5DC
:10170000CA35EF40600B83A50184EF402034CE85BD
:10171000EF30B0174C482A8DEF303017832DC401BD
:1017200048C82AC4EE85EF301078A2476355A01C44
:10173000232AB4014C404848EF4000080C40AA89D5
:101740006A85EF406007AA854E85EF3010140C487B
:10175000AA896A85EF40802F0C44EF40E005AA85F6
:101760004E85EF30901283298401AA8DCE85EF300B
:101770009073634DA000B7070080B3C93701CE85D1
:101780006E85EF30B07A63430500EE8903A5818250
:101790002328A401EF4080762AC403150C002EC62E
:1017A000138D0188EF30500703A68C3A83A6CC3AFC
:1017B000EF20E0512247B2472A86AE863A85BE85A1
:1017C000EF30E00DEF40407E2320AD0083258939C6
:1017D00003250A00EF309075938701881384C19028
:1017E00063590500130600009386C19690C3D0CAC2
:1017F00050C88C431385C196EFF04FA22A89031578
:101800008B00EF40406383A5CA35EF30F07A83A5A3
:101810004184EF40A023CA85EF3030074C48AA8CA2
:10182000EF30B006032CC40148C82A8DE285EF30A2
:101830009067635FA00C232A84014C404848EF3036
:10184000B0770C402A896685EF301077AA854A85E3
:10185000EF30B0030C482A896685EF40201F0C4406
:10186000EF309075AA854A85EF3030020329840154
:101870002A8CCA85EF303063634DA000B707008023
:1018800033C92701CA856285EF30506A634305007A
:10189000628903950400232894013305A040EF30AA
:1018A000A077B777000003A6073B83A6473BEF204E
:1018B00000422A8C03A5C186AE8C1384C186EF40FA
:1018C000E0632A86AE866285E685EF10504DEF40D4
:1018D000A06D377C00008325CC39AA84EF30B05C42
:1018E0006355A004B777000083A5073A2685EF402B
:1018F000E01508C0A9A0B7090080B3C9B901CE8519
:101900003E85EF30B062E35705E2232A34011DB56E
:101910003709008033498901CA856A85EF30106133
:10192000E35D05F0232A240109BFB777000083A5F2
:10193000473A2685EF30905F634B050204C083ACC5
:1019400001830C406685EF3040748325CC392A84AE
:1019500093844188EF3030556353A002B77700007D
:1019600083A5073A2285EF40600E88C01DA0B77797
:10197000000083A5073A2685EF3020719DBFB77719
:10198000000083A5473A2285EF30505A634E052068
:1019900080C003250A0093050000EF3030591384FE
:1019A000C192635A0500930600001387C19823A0D3
:1019B000940154CB54C88C401385C198EFF00F8626
:1019C000AA840315AB00EF40004783A5CA35EF306A
:1019D000B05E83A58184EF406007A685EF30E06AA2
:1019E0004C482A8CEF30606A832AC40148C82A8B8D
:1019F000D685EF30504B6351A01C232A54014C4034
:101A00004848EF30705B0C40AA846285EF30D05AB2
:101A1000AA852685EF3060670C48AA846285EF406E
:101A2000E0020C44EF305059AA852685EF30E0657E
:101A3000044CAA8AA685EF301047634CA000B70774
:101A40000080BD8CA6855685EF30504E634305005F
:101A5000D68403950B00232884010605EF40A03DA2
:101A6000EF4040379307207363D4A7161305207304
:101A7000EF40603C2320AA002A841145EFF0EFA834
:101A80009307703E63FAA714CE852285EF30E05F9E
:101A90002A8BCE852285EF30707BCA852A845A85B1
:101AA000EF30D07AA685EF30707AEF40A032420551
:101AB00041859307F07F63D4A7001305F07F930758
:101AC00000036354F50013050003931A0501CA854A
:101AD0002285EF30B077A685EF30205BEF40802F76
:101AE000420541859307F07F93DA0A4163D4A7004A
:101AF0001305F07F930700036354F50013050003FB
:101B0000131A0501CA852285EF302058A685EF30CB
:101B1000F073EF40202C420541859307F07F135A64
:101B20000A4163D4A7001305F07F930700036354B1
:101B3000F5001305000393190501CA855A85EF3096
:101B4000C054A685EF306054EF40C028420541855F
:101B50009307F07F93D9094163D4A7001305F07F61
:101B6000930700036354F5001305000313140501E4
:101B7000418493950A01C1810145EFE02FFC931543
:101B80000A01C1810945EFE06FFB93950901C1810D
:101B90000D45EFE0AFFA93150401C1810545EFE073
:101BA000EFF941016FE08FD9B777000083A5073ABD
:101BB0002285EF30804D55BBB7040080B3C454017B
:101BC000A6855A85EF309036E35B05E244C805BD33
:101BD000E35005EA014569BD1304000393090003BE
:101BE000130A0003930A000369B7EFE26FD4EFF022
:101BF0005F9813848188EFF07FA30820EFE07FD8FF
:101C00001C403D4785076345F7001CC06FE08FD43B
:101C100023200400E5BF9386C19AAA8801479387D1
:101C2000C19A294803A306001375F70F631B03002D
:101C30001207BA9723A01701CCC390C723860700C9
:101C400082800507C106E31F07FD1305F00F8280A0
:101C5000EFE20FCE4111EFE09FC71304401FEFE00A
:101C60001FE6EFE02FEEEFE0CFDF81450145EFE02B
:101C7000EFEC81450545EFE06FEC81450945EFE06C
:101C8000EFEB81450D45EFE06FEB29457D14EF004B
:101C9000103561FCEFF02FE78545054502C202C40F
:101CA00023160100EF0090159307F02C3EC24C0064
:101CB0009307700C370500403EC4EF0010168545B1
:101CC00037050040EF00B01E05468545370500404A
:101CD000EF00D01C854537050040EF00B01A930790
:101CE000C022231301007C8289475C83480085471A
:101CF0003EC4EF00C07B9387C19A1387070A23A0D5
:101D00000700C107E31DF7FE372500002146814586
:101D10001305A5BEEFF03FF041016FE0AFC3EFE266
:101D20002FC11384C19A9304040A5C2489C71C4000
:101D30002306040082974104E31994FE6FE08FC1EB
:101D4000854537050040EF00501715C58545370517
:101D50000040EF0010189387C19A9386070A054642
:101D6000984319C7D84311EB9847D0A711C3D8C3DC
:101D7000C107E397D7FE730020307D17CDBF01A0C8
:101D8000B707EFBE37E700E0938707083CC701A01D
:101D9000EFE20FBA0545092F152AEF00B021716552
:101DA00013050520EF001027B707002083A547087B
:101DB000377500001305853BEF40003D1D24AA85C3
:101DC000377500001305853CEF40003C3775000077
:101DD0001305853DEF40804CEFF09FE7EFF03FF4B7
:101DE000F5BFB71702409843B706FFF041111367DC
:101DF000170098C3D84337060200758FD8C398439D
:101E0000B706F7FEFD16758F98C39843B706FCFF1B
:101E1000FD16758F98C3D843B70601FFFD16758F61
:101E2000D8C337079F0098C702C402C69843C1664B
:101E3000558F98C3B716024005679C42F18F3EC686
:101E4000A24785073EC4B24781E7A247E397E7FE72
:101E5000B71702409C431397E7006357070685476F
:101E60003EC632478547631FF704B7170240D84381
:101E7000B706C1FFFD16D8C3D843D8C3D8431367EC
:101E80000740D8C3D843758FD8C3D843B7063D00A1
:101E9000558FD8C39843B7060001558F98C3984310
:101EA00093166700E3DD06FED843B7160240719B28
:101EB000D8C3D84313672700D8C32147DC42B18B6E
:101EC000E39EE7FE4101828002C661BFB716024071
:101ED000DC421146B18B138741806385C7002146E0
:101EE0006388C702B7177A00938707201CC3B71708
:101EF0000240DC43918393F6F700B70700209387F5
:101F00000700B69794231C43B3D7D7001CC3828025
:101F1000DC42D4424166C983BD8BF18E89074546B8
:101F20006393C700C94781EEB746024083A6068087
:101F3000C18A89CEB7167A009386062021A8B716E3
:101F40000240D4421396E600E35606FEB7163D0063
:101F500093860690B387D70251BF01A097F1FF1F68
:101F600093814192173100201301C10917650000C8
:101F70001305858E97E5FF1F9385C508138681821B
:101F800063FAC5008322050023A0550011059105C1
:101F9000E3EAC5FE13858182938501A56377B500C9
:101FA000232005001105E36DB5FEFD42739002BCD0
:101FB0008D4273904280930280087390023097E2C2
:101FC000FFFF9382620493E2320073905230EFF08D
:101FD0005FE1970200009382E2DB7390123473009A
:101FE0002030B7F7FF1F03A5477082801C4141676F
:101FF0007917F98F1CC12320050023220500232413
:102000000500B707024023260500138787006316E3
:10201000E500D8431367F70001A81387C7016317CA
:10202000E500D8431367070FD8C3B1A81387070388
:102030006318E500D8438566938606F0558FEDB7A3
:10204000138747046315E500D843BD66C5BF1387F2
:1020500087056316E500D843B7060F00C5B7138799
:10206000C7066316E500D843B706F000C1BF138763
:1020700007086316E500D843B706000FC1B71387FA
:102080004709E308E5F882801C4161773D079451D8
:102090007D8F9C45D58F9449D58FD449D58F944D4C
:1020A000D58FD44DD58FD451D58F9455D58FD98F09
:1020B0001CC1DC455CC19C411CC5DC415CC5828007
:1020C0001C4189C593E717001CC1828041677917BD
:1020D000F98FDDBF4CC182809C4513F7070113F8CF
:1020E000F70001C7D8413368E80037270240145B86
:1020F0003707000F758F4DEB85462386D18837173C
:1021000001406315E5009A2135839AA18E2113F7CA
:10211000F50F39C318418146854E3D4F930F80021C
:1021200093028004214E3396DE00B3F8C50063119C
:1021300016039398260033131F011343F3FF3377DD
:10214000E300B318180133E7E8006397F70750C9B5
:102150008506E39AC6FD18C11307F00F6375B7042F
:1021600054412146854E3D4F930F800293028004D7
:10217000414EB398CE0033F715016392E80213176E
:10218000260001173313EF001343F3FFB376D30098
:102190003317E800D98E6395F703232A1501050646
:1021A000E319C6FD54C1828037170140E310E5F6FC
:1021B00003C7C18821DF81BFE39C57F810C949BF1D
:1021C000E39F57FC23281501D9BFB71701406316B9
:1021D000F50083C7C18891C3B5810CC98280B71748
:1021E00001406316F50083C7C18891C3B5814CC90E
:1021F0008280B7070140635A0504DC4F93560501FE
:10220000131805013707300013F6F60013580801BC
:10221000B376E500635E05066399E604930606015E
:102220000D46B316D60093C6F6FFF58F99C913571E
:1022300055011377F73F12073317E800D98F63551D
:102240000506370701405CCF828037270240145BC8
:10225000DC433707000F758F55F313D71700F97656
:10226000CE07758FCD83D98F51BF1317B500635635
:1022700007008D46B396C6007DB7135755011377F7
:10228000F73F12073317E8001347F7FFF98F79BFBD
:102290006390E602370601405442370700F17D178C
:1022A000F98F758F58C2C1F5370701405CC3828032
:1022B0001317B500635C07008D46B396C60093C63E
:1022C000F6FFFD8EB707000FD58FF1BF13575501ED
:1022D00012073317E8001347F7FF7D8FB707000F8A
:1022E000D98FD1B7EFD2DFE4797146212A8468080B
:1022F0002EC6012C925737470F001307072433D7F8
:10230000E702C204C18093F404FCC204B7869303BD
:10231000C1809386F66FB24542074183D98C63F43E
:10232000F6001307C00346A0162061661306066A6E
:10233000C206C182F99AC206C18216A0944163699D
:10234000D6048606B3D7D702114693960701C182F9
:10235000B68763F3C6009147C207C18305074207EA
:1023600041831AB05EAC1E20DA21B62593E7170030
:102370001EA01E20558FC207C18393F757BFD98F68
:102380001EA09A25DE25D98F1EA445616FD09FDC43
:10239000EA2131667D166319C5020D46B386C60271
:1023A000B3D7D702C207C1839396470199E293E757
:1023B0001700A166D58F9306C0123307D702930684
:1023C000803E3347D70259BF6546B386C602B3D7AE
:1023D000D7029166C207C183D58FF9B71E2189C57F
:1023E00093E717001EA18280C207C183F99BC20731
:1023F000C183CDBF1E2189C593E707101EA182802E
:10240000C207C18393F7F7EFC207C183C5BF1E217F
:1024100089C593E707201EA18280C207C18393F775
:10242000F7DFC207C183C5BF1E2189C593E70740F7
:102430001EA18280C207C18393F7F7BFC207C18381
:10244000C5BF0EA982800A291375F50F828093F704
:10245000E50F19C293E71500C207C1831EA9828048
:102460005E290A2D42055D8D6D8D220521810D8D20
:10247000133515008280411102C402C693D7C501ED
:102480002AC63EC4A247A205A18199CBB247D10773
:102490003EC6B247884341016D8D3335A00082802E
:1024A000B247C181E107EDB723A8A188828003A7C5
:1024B0000189854714216310F7021C31639CE702F0
:1024C0003C21960793E707F837E700E093F7F70F0B
:1024D00036972300F740054793D756003317D700A8
:1024E000544189CE938707048A07B7E600E0B69780
:1024F00098C38280EDF33C219607F9B793870706CE
:10250000E5B7371702405C439146B18B6385D7002E
:10251000A1466382D706B7177A00938707201CC1AC
:10252000371602405C4237070020130707019183EA
:10253000BD8BBA9794231C41B3D7D7005CC15442DA
:10254000A1829D8ABA969422B3D6D70014C554426C
:10255000AD829D8A36971823B3D7E7005CC55842F1
:102560003983937637001387818036971823B3D742
:10257000E7021CC982805C435843C166C983BD8B96
:10258000758F8907C5466393D700C94701EF374761
:10259000024003270780418B09CF37177A001307C2
:1025A000072021A83717024058439316E700E3D6C7
:1025B00006FE37173D0013070790B387E70285B77C
:1025C00099C5371702405C4B5D8D48CB8280B717A9
:1025D0000240D84B1345F5FF798DC8CB828099C551
:1025E000371702401C4F5D8D08CF8280B71702401D
:1025F000984F1345F5FF798D88CF828099C537179D
:1026000002405C4F5D8D48CF8280B7170240D84FA3
:102610001345F5FF798DC8CF82801E2137370140E1
:10262000130707C0C207C1836304E50237070040F0
:102630006300E50213070740630CE500371700400D
:10264000930607806306D500130707C06316E500ED
:10265000BA2193F7F7F8D98FFA2193F7F7CFC2078A
:10266000C183D98F1EA1DE215EB59E211EB5B7376D
:102670000140938707C06314F5009C251EB9854768
:102680005EA982801E2189C593E717001EA1828062
:10269000C207C183F99BC207C183CDBF5E2501C6B6
:1026A000DD8D4EA5828093C5F5FFFD8DDDBF93C501
:1026B000F5FFC205C1810EA982801E294A25ED8F32
:1026C0004205418189C76D8D3335A0008280014567
:1026D000828093C5F5FFC205C1810EA98280EFD229
:1026E0003FA51629F577FD17F58FF621DA257971C3
:1026F000D58F1EA95625FD779387379FF58FD62155
:102700002A842EC6D58F9625D58FB625D58F5EA562
:102710005E29C207C18393F7F7CFD98F5EA96808F6
:10272000EFF03FDEB747014093870780B245631E55
:10273000F402A2576547B387E70298419306400623
:102740000A07B3D7E70233D7D702B3F7D702120786
:10275000920793872703B3D7D702BD8BD98FC207C0
:10276000C1831EA445616FD0FF9E9257E1B791C50A
:102770005E250967D98F5EA582805A25F977FD17F6
:10278000F98FD5BF5E2901C6DD8D4EA9828093C524
:10279000F5FFFD8DDDBF93F5F51F4EA182800A2167
:1027A0006D8D3335A000828093C5F5FFC205C181D0
:1027B0000EA18280B707002083A7470837177A0049
:1027C00013070720B3D7E70293F7F70F238BF1889E
:1027D0001307803EB387E702239AF1888280B7F718
:1027E00000E0D8438146799BD8C303D7418933069B
:1027F000A70290CBD4CB98431367070198C39843A3
:102800001367170298C3D843058B75DF9843799BEC
:1028100098C38280EFD2DF912A841165011185452A
:102820001105EFF0DFDB930700207C8237150140B4
:102830008D473EC44C00E147130505803EC6EFF0CE
:10284000BF8922C837440140B70708000C081305A8
:1028500004803ECC02CA231E0100EFF05FE88545EC
:1028600013050480EFF0BFF005616FD0BF8EEFD28B
:102870009F8AB7440140AE89328901449384048021
:10288000634524014A856FD05F8C9305000426853B
:10289000EFF0FFF07DD9B387890083850700268597
:1028A0000504C205C181EFF01FEFD9BF1387C180B6
:1028B0001C43938601A53E95636BD500B756002057
:1028C0009386068063E5A60008C33E858280FD5797
:1028D000EDBF5D71A2C4A6C2CAC04EDE52DC86C680
:1028E000138A01812A84AE84952203270A00FD57AA
:1028F0002A89AE896307F7022286A6862285A685E5
:10290000EF20C06D19ED2285A685EF00D0479757BF
:102910000000938727AE9043D443EF109016634C8A
:10292000A000B64026444A85CE8596440649F25911
:10293000625A6161828085473EC4175500001305C5
:1029400025F097570000938767AB3EC602D422CC90
:1029500026CE22C826CAEF00B04303270A002AD099
:102960002ED28947630BF7002800EF00304211C5D3
:10297000A25791EB025992596DB7EF30700093074F
:1029800010021CC1F5B7EF30A07FA2571CC1DDB704
:102990000DA35D71A2C4A6C2CAC052DE56DC86C6B3
:1029A0002A84AE84EF00A06E9387018103A90700FB
:1029B000FD572A8AAE8A6301F9022286A6862285FD
:1029C000A685EF20A06109E9014681462285A685FA
:1029D000EF101016634C0500B64026445285D6858C
:1029E00096440649725AE25A6161828085473EC424
:1029F00097570000938707A13EC602D422CC26CE6B
:102A000022C826CA63070902014681463285B68577
:102A1000EF10E02B2AD02ED28947631EF900EF3049
:102A20002076930710021CC1A25781EF025A925AD6
:102A300065B702D002D22800EF0050356DD1A25701
:102A4000F5D7EF30E073A2571CC1CDB739714AD822
:102A50001399150022DC26DA06DE4ED652D456D261
:102A60005AD05ECE62CC66CA6AC86EC613591900C7
:102A7000B707F03F2E84AA84634DF9063309F94065
:102A80003369A900630B09022A86AE86EF10306114
:102A90002A86AE86EF10A023AA84F25062542685BF
:102AA0004259D254B259225A925A025BF24B624CAA
:102AB000D24C424DB24D21618280975700009387DE
:102AC000E7949043D443EF10101297570000938778
:102AD00067949043D4432A89AE892685A285EF1056
:102AE00090102A86AE864A85CE85EF00502BAA84A8
:102AF0006DB7B707E03FAE89175B0000130B8B8FF4
:102B0000635AF902B707403E6353F928975700000C
:102B10009387C7909043D443175B0000130B8B8DB2
:102B2000EF00F02703260B0083264B00EF106075A3
:102B3000634DA0242685A285EF00F0242A86AE8668
:102B400003250B0083254B00EF10705597570000AD
:102B5000938747929043D443EF10F00897570000B3
:102B60009387478C9043D4432A84AE84EF10B007F8
:102B7000975700009387878B9043D443EF00302210
:102B80002286A686EF103006975700009387878A23
:102B90009043D443EF10B0502286A686EF10B004C5
:102BA00097570000938787899043D443EF00301FE5
:102BB0002286A686EF1030039757000093878788F8
:102BC0009043D443EF10B04D2286A686EF10B0019B
:102BD00097570000938787879043D443EF00301CBA
:102BE0002286A686EF1030009757000093878786CD
:102BF000D44390432A8AAE8A2285A685EF10A07E10
:102C000097570000938787859043D443EF1030494E
:102C10002286A686EF10207D975700009387878431
:102C20009043D443EF00B0172286A686EF10A07B16
:102C300097570000938787839043D443EF10304623
:102C40002286A686EF10207A03260B0083264B00EF
:102C5000EF00F0142A8BAE8B2285A6850D29B7379D
:102C6000EF3F93872733AA8C2E8C63DD27055A8686
:102C7000DE865285D685EF1080056686E286EF10E7
:102C800080766686E286EF0090112A86AE86EF0097
:102C90001011974700009387E7779043D443EF10D4
:102CA000104097470000938767762A86AE86884350
:102CB000CC43EF10D03EAA84E34130DFB707008059
:102CC000BD8DE1BB2A86AE86EF00700D5A86DE868A
:102CD0002A8DAE8D5285D685EF00707F2A86AE860E
:102CE0006A85EE85EF102070014A2A8BAE8B5286E2
:102CF000E2865285E285EF10006F2A86AE86228535
:102D0000A685EF10D0392A84AE845286E286668585
:102D1000E285EF00D0082A86AE862285A685EF00E0
:102D2000107B2A86AE86EF009007974700009387B6
:102D3000676E2A86AE868843CC431744000013048E
:102D4000E473EF10D0352A86AE865A85DE85EF1003
:102D500010352A8BAE8B5286E2865285E285EF00D3
:102D600010042A86AE8608404C40EF1050332A8665
:102D7000AE865A85DE85EF1090322A86AE860840F0
:102D80004C40EF10D031AA8405BFA28539B32A8602
:102D9000AE86EF104065974700009387A768904381
:102DA000D4432A89AE89EF100064974700009387C7
:102DB000E7679043D443EF00807E4A86CE86EF10CB
:102DC0008062974700009387E7669043D443EF10F3
:102DD000102D4A86CE86EF1000619747000093873A
:102DE000E7659043D443EF00807B4A86CE86EF10A0
:102DF000805F974700009387E7649043D443EF10C8
:102E0000102A4A86CE86EF10005E9747000093870F
:102E1000E7639043D443EF0080784A86CE86EF1074
:102E2000805C974700009387E7629043D4432A8AE7
:102E3000AE8A4A85CE85EF10005B974700009387E6
:102E4000E7619043D443EF1090254A86CE86EF1079
:102E50008059974700009387E7609043D443EF0081
:102E600000744A86CE86EF1000589747000093877B
:102E7000E75F9043D443EF1090224A86CE86EF104E
:102E80008056974700009387E7569043D443EF005E
:102E900000712A86AE865285D685EF00506326865D
:102EA000A286EF1040542686A286EF00406FAA84C7
:102EB000EDB6B307C040370700801347F7FFD18F47
:102EC0004111337ED700FD8306C622C4B3E7C70194
:102ED0003703F07FAA882E886367F304B307A04006
:102EE000C98F6D8FFD83D98F2E8F636EF302B70765
:102EF00010C0B697D18FF9C313D4E641937524005F
:102F0000B367A7001354F8014D8C9DE78947630B05
:102F1000F40A8D47631FF40897470000938707570B
:102F20008843CC4331A03285B6854686C286852D3E
:102F3000B240224441018280B367CE00B5C3630131
:102F40006E0A630F67043307C74151879307C003B5
:102F500063C1E70863D80600930740FC014581453B
:102F60006348F7004685C285EF007056292DD52CA1
:102F70008547630FF40A89476309F40855D89747D2
:102F800000009387A7539043D443EF105011974705
:102F900000009387274F9043D443EF10501049BF50
:102FA000634E0F0497470000938747468843CC43FE
:102FB00041B7B2402244C285410182802244B240DE
:102FC000410145A4974700009387C74B8843CC43F2
:102FD00085B797470000938767438843CC4349BF31
:102FE0008947630BC705E30FF4FC8D47E306F4F252
:102FF00085476302F406014581451DBF97470000E0
:103000009387C7498843CC4325B7974700009387E8
:10301000E74A9043D443EF10900897470000938706
:1030200067462A86AE868843CC43EF10500709B71F
:10303000B7070080BD8DEDBD6304F4048D47630ABE
:10304000F40285476300F402974700009387074323
:103050008843CC43F1BD974700009387A74388433B
:10306000CC43F9B5974700009387C7448843CC43C6
:10307000C1B597470000938767438843CC434DBD54
:1030800097470000938707428843CC4355B54111C9
:103090003707F07F22C426C206C63378B7002E84D5
:1030A000AA84630DE816AE87AA86635FB00E13DEAE
:1030B000454163000E1A370710001306F7FFF18F22
:1030C000D98F130E1EC01397170013761E0093D7C7
:1030D000F601BA971397160011C67D838607BA9733
:1030E00013972600135E1E40D945814E8146370650
:1030F00020003385C6001358F701FD1563C6A700ED
:10310000898FB306C500B29E8607C297060705825F
:10311000EDF113050002014381483706008019A82C
:103120006385D70E9355F70186077D15AE97060781
:1031300005820DC9B3051601E3D4F6FEB388C500B8
:10314000368863CE050A958FB336B700958F0D8FFD
:103150009355F70186077D153293C286AE97060711
:10316000058269F9D98F9354130089CB9304130016
:10317000FD5785806314F300850E814413D71E40EC
:103180003704E03F93FE1E003A9463850E00B707B4
:103190000080DD8C13174E012297B2402244268511
:1031A000BA859244410182801397150005833368E4
:1031B000A7002E87E30308FED1E193D5B600AD1733
:1031C0002E87D606FDD913D6450159E6014611A032
:1031D0002A8606079315B70013051600E3DA05FEE5
:1031E000930800023688B388A840BA85B396A60033
:1031F00033571801338EC740B367B7006DBD13C88E
:10320000F8FF1358F80136983DBFE36DB7F0B38867
:10321000C500E3C605FE3E88814715BF2A86AE86F7
:10322000EF10601C2686A2869D2EB2402244AA84FE
:103230002E872685BA859244410182802A86AE86F1
:10324000EF10E0652A86AE86EF007028AA842E87EC
:10325000A9B72E8781479DBF3688930800027D5607
:1032600041BF79714AD01399150022D426D256CA8B
:1032700006D64ECE52CC5AC85EC613591900B707AF
:1032800010442E84AA84AE8A6346F904B707F07FFF
:1032900063CE2701630BF9006353501F974700006B
:1032A0009387C7168443C04309A87DD52686268503
:1032B000A286A285ED24AA842E84A285B25022542F
:1032C000268502599254F249624AD24A424BB24B85
:1032D00045618280B707DC3F6351F91CB707203E88
:1032E000634DF9167D5A2686A2862685A285EF10A3
:1032F000800F2A86AE862A8BAE8BEF10C00E9747C2
:1033000000009387A71D9043D4432A89AE89EF100C
:10331000800D974700009387E71C9043D4434124D6
:103320004A86CE86EF10200C974700009387071C33
:103330009043D443AD244A86CE86EF10C00A974707
:1033400000009387271B9043D443912C4A86CE8656
:10335000EF106009974700009387471A9043D443C2
:103360003D2C4A86CE86EF100008974700009387D1
:1033700067199043D44325245A86DE86EF10A006B1
:1033800097470000938787189043D4432A8BAE8BCE
:103390004A85CE85EF102005974700009387871751
:1033A0009043D443EF10A04F4A86CE86EF10A0037F
:1033B00097470000938787169043D443EF10204E21
:1033C0004A86CE86EF102002974700009387871524
:1033D0009043D443EF10A04C4A86CE86EF10A00055
:1033E00097470000938787149043D443EF10204BF6
:1033F0004A86CE86EF00307F2A86AE865A85DE85E5
:10340000792A2686A286EF00107EFD572A86AE8690
:10341000630EFA060E0A974700009387A713D29708
:103420009043D443974700009387C7103E9AEF100C
:1034300000472686A286EF1080462A86AE860325A0
:103440000A0083254A00EF108045AA842E84E3D623
:103450000AE6370400802D8C8DB5974700009387CE
:10346000E7FB9043D443252A97470000938787F8CA
:103470009043D443EF00F060E356A0E63DBD97478C
:1034800000009387A7018443C04305BD2685A2851C
:10349000EF10E040AA842E840DB5F520B707F33F66
:1034A0002A84AE846356F904B707E63F6359F90AE4
:1034B0002A86AE86ED20974700009387A7F39043B6
:1034C000D443014AEF10A03D97470000938787FF40
:1034D0009043D4432A89AE892285A685C9202A86AD
:1034E000AE864A85CE85EF00807EAA842E84E5BB19
:1034F000B78703406357F90417490000130909FD12
:103500000326090083264900094AEF1040390326A3
:103510000900832649002A8BAE8B2285A685EF0001
:10352000906C974700009387E7EC9043D44385283D
:103530002A86AE865A85DE85EF006079AA842E84BD
:103540005DB3974700009387E7F88843CC43228612
:10355000A686EF00C0770D4AAA842E8469B3174966
:103560000000130929E90326090083264900054ABA
:10357000EF10E0322A8BAE8B032609008326490028
:103580002285A6856DB7860585818280014582806A
:1035900097470000938707FE8843CC438280370813
:1035A000100001117D183377B80026CA3378D8008F
:1035B00093D4450113D34601131E37004EC613574B
:1035C000D5010E089357D60193F4F47F1373F37F5C
:1035D00006CE22CC4AC893D9F50193DEF6013367B3
:1035E000C701131F350033E80701931F3600338EE0
:1035F00064406380D9196356C0136304031CB70683
:1036000080009307F07F3368D800638FF436930708
:10361000800363C0C735FD4763CDC747130500026C
:103620003305C541B3D7CF01B316A8003399AF0016
:10363000DD8E33392001B357C80133E926011D8FD0
:1036400033092F41B3372F013306F7409317860014
:1036500063D40724370780007D173374E600630CBA
:10366000042C2285EF20F02A130785FF9307000220
:10367000998FB357F9003316E400D18F3319E9005D
:103680006341972A33059740130615007D47634D24
:10369000C73813070002118FB356C9003319E90068
:1036A0003397E700558F333920013369270133D62B
:1036B000C70081449377790081CF1377F900914750
:1036C0006308F70013074900333927014A963A89FE
:1036D0009317860063D6071C138514009307F07FA9
:1036E000CE856304F520B70780FFFD17F18F93980F
:1036F000D70113593900A607B3E82801B183137520
:10370000F57F9396C7005205F2406244B182FE05F0
:10371000C98ECD8ED2444249B2494685B6850561EF
:103720008280631E0E0A138314001373E37F6317F2
:103730000322B367E701B368F801639D041A638746
:103740000740638608443309FF41B3070741333616
:103750002F013386C7409317860063D6074C338901
:10376000EF41B307E84033B62F013386C740F689EF
:1037700091B76350C00F6300030CB7068000930736
:10378000F07F3368D800638AF43A9307800363CBF1
:10379000C713FD4763DFC73513090EFE9307000209
:1037A000B3562801630AFE00130900043309C94116
:1037B00033192801B3EF2F013339F0013369D900F0
:1037C00031A2B367F801638A071C9307FEFF638C7D
:1037D00007389306F07F6309DE1A3E8E0DBDB305F0
:1037E000934063910422B367E701638707329387AD
:1037F000F5FF638107449306F07F638CD520BE8577
:103800009307800363CCB72AFD4763CFB73C930788
:1038100000028D8F3319F700B356BF00B317FF00B6
:103820003369D900B337F0003357B7003369F90073
:103830003308E84041ACB367F8016380073493076D
:10384000FEFF638A07209306F07F6308DE2E3E8E1C
:103850002DBF631E0E149386140093F7E67F6391C9
:103860000734B367E7016395042C6380073EB367B1
:10387000F801638E07303309FF01B3070701333FB7
:10388000E9013386E7019317860063D70700B7077E
:1038900080FFFD177D8E854493777900E39F07E0D5
:1038A0009317D60193583900B3E8F80093573600C0
:1038B0001307F07F638DE404B207B18313F5F47F3F
:1038C000CE8581B53369F801333920017A99B33750
:1038D000E9013386E70093178600E3DF07FA8504E2
:1038E0009307F07F6396F418CE851305F07F814728
:1038F000814801BDC1EB6384083A931636009317E3
:10390000D8018D82B3E8D700F68993573800B3E722
:10391000F800F9DB81451305F07FB70708008148FF
:10392000CDB3370680FF7D167D8E93777900998C15
:10393000E39507D8B5B74A85EF20A07D1307850129
:10394000FD47E3D5E7D2130685FFB317C900014948
:1039500005BB3369F80133392001DDB13309FF417B
:103960003306074133342F01330486409317840014
:1039700063CD0724B3688900E39308CE814781496A
:1039800081441DBFE39808F80E059317D7010D81F8
:10399000B3E8A700935737009DBF0E059317D701D3
:1039A0000D81B3E8A700F2849357370011B73305B0
:1039B000934063820412B70680009307F07F558F0F
:1039C000630DF32E9307800363CBA720FD4763C3EA
:1039D000A72A93070002898F3319F700B356AF0067
:1039E000B317FF003369D900B337F0003357A7008E
:1039F0003369F9003A987E99B337F90133860701A4
:103A00009A84D1BDB70680009307F07F558FE319E4
:103A1000F3DE931736008D839318D801B3E81701AE
:103A2000F68993573800E5B5130715FE9306000293
:103A300033D7E700630AD600930600043386C640F6
:103A40003396C7003369C900333920013369E9006F
:103A50000146814491B53309FF01B30707013336AD
:103A6000E9013E96931786008544E3D707E289442F
:103A7000B70780FFFD17F18F13571900137919004D
:103A8000336927019398F70133E9280113D617000A
:103A900015B113090EFE93070002B3562801630AFD
:103AA000FE00130900043309C94133192801B3EF9B
:103AB0002F013339F0013369D90059B63369E70171
:103AC0003339200133892F41B3B72F013306F84032
:103AD0009A84F689A5BEB367E70163820718930746
:103AE000F5FF6384071C9306F07F6304D5123E85BF
:103AF000D1BD93070002B387C741B316F8003399CD
:103B0000FF0033D6CF01D18E33392001B357C8011E
:103B100033E926013E975DBB931736008D839318DA
:103B2000D801B3E81701AE8493573800F68949B33A
:103B3000EDC33369F801E31F09DC0E059317D701C4
:103B40000D81B368F50093573700D1B36381080E38
:103B5000931636009317D8018D82B3E8D700F68903
:103B60009357380091BB3309FF41B3070741333FF7
:103B70002F013386E7418544D1BC0E059317D70149
:103B80000D81B368F500F2849357370015B30E0525
:103B90009317D7010D81B3E8A7009357370029BBCE
:103BA0009307F07FE382F6D43309FF013336E9014E
:103BB000B3070701B2979398F7011359190033E936
:103BC000280113D61700B684C1B93389EF413307F2
:103BD000E84033B62F013304C740F68949B433694E
:103BE000E7013339200101BD938705FE93060002EA
:103BF000B357F700638AD50093060004B385B64037
:103C00003317B700336FEF003339E0013369F90040
:103C100055BD931736008D839318D801B3E817016B
:103C200093573800EDB1B368C900E39708C68147E0
:103C3000814959B13389EF41B307E84033B62F01C9
:103C40003386C740F689854411B49316360093171E
:103C5000D8018D82B3E8D70093573800B1B99316D5
:103C600036009317D8018D82B3E8D700AA84935702
:103C700038003DB9930705FE93060002B357F700DD
:103C8000630AD500930600043385A6403317A700C6
:103C9000336FEF003339E0013369F900A9BB814587
:103CA0001305F07FB7070800A9BC3309FF01B3076C
:103CB00007013336F9013E9675B393163600931714
:103CC000D8018D82B3E8D7009357380089B1397194
:103CD00093D7450122DC4AD856D22A891394C500CD
:103CE00006DE26DA4ED652D45AD05ECE13F5F77FD2
:103CF000318093DAF501630B05109307F07F630BB6
:103D0000F514135AD9010E0433648A00370A80006F
:103D1000336A4401131B3900930415C00144814BDD
:103D200013D846011399C6001378F87FB288135947
:103D3000C90093D9F601630E08089307F07F63006A
:103D4000F8041357D6010E0933692701130818C068
:103D5000B70780003367F90093183600B384044135
:103D60008145BD4733C83A0163E4871A974700008D
:103D70009387C7800A043E9410403E9602863367BC
:103D8000C9009384148063120710136424008148CF
:103D90008945C1BF1306F07F81470147B207F25042
:103DA00062545206B1837E08D18FB3E70701D25423
:103DB0004259B259225A925A025BF24B3A85BE8559
:103DC0002161828001481306F07FB7070800014790
:103DD000F1B73367C9004DC7630809304A8532C45B
:103DE000EF2020332246130755FFF547930685FF42
:103DF000998F3319D900B357F60033E72701B31869
:103E0000D60026959304353F8145A1BF336A24012E
:103E100063030A0636C632C46306042A2285EF20ED
:103E2000402F2246B246AA84130755FF754A138BCA
:103E300084FF330AEA4033146401335A4901336A78
:103E40008A00331B69011305D0C0B30495400144B7
:103E5000814BF9B5336A240163180A002144014BF0
:103E60009304F07F894B6DBD228A4A8B31449304C1
:103E7000F07F8D4B75B51144014B8144854B4DB599
:103E80001364140081488545E9BD136434004A87F2
:103E90008D45C1BD630A052E8547898F9306800332
:103EA00063DDF632014681470147CDBDCE868947A5
:103EB000638DF53A8D47E387F5F085473688E383D0
:103EC000F5FE1385F43FE357A0FC93F77800639663
:103ED000072893D638009317770063D80700B707F1
:103EE00000FFFD177D8F138504409307E07FE3C338
:103EF000A7EA1316D70193179700B1833367D6004B
:103F00001376F57F61BDD6865287DA88DE8545B7A0
:103F100063614723630DEA20DA86FD145284014B66
:103F20009317870013D388013363F300935E030173
:103F3000B357D403131F0301135F0F0193D5060179
:103F4000139E88003374D4033307FF024204C18DEB
:103F500063FBE5009A951386F7FF63EE652663FC25
:103F6000E526F9179A95998D33D7D503C206C182F4
:103F7000B3F5D5033306EF02C205D58D63FBC5004B
:103F80009A959306F7FF63E6652463F4C5247917D1
:103F90009A95C20741645D8F9307F4FF3375F7006C
:103FA00093580701935F0E01B377FE00B302F50249
:103FB000B386C540B383F80293D502013386AF02BE
:103FC0001E962E963385F803637376002295C1689A
:103FD000FD1893550601337616014206B3F8120117
:103FE000AA95469663E6B6126382B6123306CB40B4
:103FF0008D8E333BCB00338B66411385F43F630CCE
:104000006317B358DB0393550601337BDB03B30619
:104010001F03420B33EB6501637BDB001A9B938527
:10402000F8FF636D6B20637BDB20F9181A9B330B61
:10403000DB40B356DB0342064182337BDB03330FA5
:10404000DF02420B33666601637BE6011A969385B5
:10405000F6FF6367661E6375E61FF9161A96C208B7
:10406000B3E8D8009395080193D20801C181B38EBB
:10407000F5023306E641B385BF0293D60E01B3873E
:10408000F202BE95AE96B38F5F0263F4F600C1678D
:10409000BE9FC165FD1593D70601ED8EC206B3FE26
:1040A000BE00BE9FF696637FF6091A969387F8FFC7
:1040B0006369661A6368F619630FF61BBE8893E896
:1040C000180011B54A85EF20C00413075501F145CA
:1040D000930405022246B246E3DAE5D4130485FFD1
:1040E000331A8900014B85B3328532C4EF20600258
:1040F00013075501F146AA87224613050502E3D6A8
:10410000E6CEE1173317F6008148E5B9E370CBEE50
:10411000729B3335CB011A95AA961305F7FF637886
:10412000D30263E6B6106382D5102A87C1B5E36572
:104130001BDF93551B009316FA0113541A00CD8E02
:104140007E0BF9BBE31DF6F7E38F06D6B9BFE31E7E
:10415000D3FCE378CBFD2A8751BD93F7F800914655
:10416000E389D7D693B7C8FF9386480093C7170053
:104170008D823E978DB381468547E34CA0FEFD5866
:10418000E31C05D0930410C085471385E441B316A2
:10419000A70033D6F8003395A800D18E3335A000A0
:1041A000C98E13F676003357F70001CE93F7F60069
:1041B00011466388C70093874600B3B6D700369789
:1041C000BE869317870063D80704054681470147D9
:1041D000F1B636877DBBB28779B3FD46E3D7F6FAF1
:1041E0000556098E930600023356C7006388D70030
:1041F0009387E443B317F700B3E8F800B336100130
:10420000D18E13F67600814701CE93F7F600114662
:104210000147E392C7FA931797001316D701B183AA
:1042200013D73600518F014695BEE370CBF0729BD9
:104230003335CB011A957917AA964DBBAE88C5BB0D
:10424000AE8631BD93171E0033BEC70172931A9616
:10425000F9183E8EE315F6E7E307DEC693E818008B
:104260009DB1BE88E30AF6FF99BD36881306F07F3C
:104270008147014725B6E367DEFCBE88E310DEFE1A
:1042800099B113D74501B7071000FD1713D84601A0
:104290001377F77F9308F07F33F3B7002A8EF58FFB
:1042A000FD81B28E1378F87FFD82630817036300E7
:1042B00018030DEBB368A300631408005D8E29CAD0
:1042C000638508046388D502054595ED8280B3E8CF
:1042D000C700E38008FE795582803365A30065FD41
:1042E000630CE802631408005D8E79DEE39ED5FC62
:1042F000E34CE8FC63480701E3E867FC6303F3026F
:10430000637FF30081E57D558280F5DE054582807F
:104310000145E39B08FA82805D8E69DA6DBF014535
:104320008280E3E3CEFB0145E372DEFBE5F1E1BF12
:1043300013D74501B7071000FD1713D846011377AF
:10434000F77F9308F07F33FEB700AA8EF58FFD81CB
:10435000328F1378F87FFD82630E1703630D180107
:1043600029E3B368AE00631F08005D8E01EE0143D0
:10437000638C080421A8B3E8C700094363960804C6
:104380006DD305A0638408046385D50205438DCDF4
:104390007D531DA8B368AE00094363970802630A02
:1043A000E802631408005D8E75D2E391D5FEE34FF9
:1043B000E8FC63490701E3EBC7FD630FFE0001431F
:1043C0006374FE00F1D505431A858280EDFE7D53AE
:1043D000E5BF5D8E79DACDBFE36ADFFB0143E3F52C
:1043E000EEFFF5F175B739714AD813D945014ED6AC
:1043F00052D456D29399C50006DE22DC26DA5AD072
:104400005ECE1379F97F2A8A93D9C90093DAF50130
:10441000630D090E9307F07F6306F9181354D50155
:104420008E09B36934013704800033E489009314A2
:104430003500130919C08149814B13D74601139ADE
:10444000C6001377F77FB285135ACA0013DBF60153
:10445000630B07109307F07F6303F7049357D601AC
:104460000E0A33EA4701130717C0B7078000B36786
:10447000FA00931536003A99814833C76A01BD4660
:104480003A851308190063E836171736000013063B
:10449000E6128A09B29983A60900B2968286B367AA
:1044A000CA001309F97F6399071293E9290081452E
:1044B0008948E1B701479307F07F3704080081443A
:1044C0003204D20731807E075D8C598CA285F25070
:1044D000625426854259D254B259225A925A025BEA
:1044E000F24B216182805A853E84AE84C68B894717
:1044F000638DFB0E8D47E38FFBFA85472A87639E0A
:10450000FB3881470144814465BF33E4A90061C0A1
:1045100036C632C4638C092A4E85EF10903F22467E
:10452000B246AA87130755FF7544938487FF198CF9
:10453000B399990033548A0033643401B3149A0058
:1045400013D746011309D0C0139AC6001377F77F1B
:104550003309F9408149814BB285135ACA0013DBF4
:10456000F601E31907EEB367CA00B1C7630F0A2269
:10457000528532C4EF10F03922462A87930655FF40
:10458000F547930587FF958F331ABA00B357F600A6
:10459000B3E74701B315B6003309E9401309D9C0A1
:1045A0008148E1BD33E4A90001ECA149814413092C
:1045B000F07F894B59B593E919008145854875BD50
:1045C0004E84AA84B1491309F07F8D4BBDB5914942
:1045D00081440149854B95B593E93900D2878D48CF
:1045E00069BD89475685E397FBF02A879307F07FDB
:1045F00001448144F1B5C16E1386FEFF93D60401D8
:1046000013DE0501F18CF18D338695023383B602FA
:104610009358060133059E021A95AA98B382C603E1
:1046200063F36800F692C16F1383FFFF33F56700F1
:1046300093D30701B3F76800C207337366003E9354
:104640003306950293D80801B387A602135F0601CB
:10465000B3849302BE94FA94B38E760263F3F400AB
:10466000FE9E416A9307FAFF935F0401B376F4005C
:10467000B3F9F4007D8EC1803384D502C209338F33
:10468000D401B299CE98B307DE02935E0401B385DC
:10469000BF02AE97BE9E330EFE0363F3BE00529E72
:1046A000C1679385F7FF33F6BE006D8C42062296F4
:1046B00093DE0E01B305D502769E3385AF0213D487
:1046C0000501B386D302AA96A296B38FF30363F3D0
:1046D000A600BE9F41657D15B3F7A600C2076D8D8C
:1046E000AA97B3855800B3B93501FA97B2953384C8
:1046F000370133B6C500B30EC4013385CE00333461
:104700003401B3B7E701C18F33BECE0113D4060124
:104710003336C5003E943366CE00939495003294B0
:104720007E94B3E46400260493567501B33490007C
:10473000DD8193179500CD8C558CDD8C931774001B
:1047400063DB070093D7140085889316F401DD8C92
:10475000D58C058042899307F93F6359F00893F699
:10476000740081CE93F6F40011466388C6009386E8
:104770004400B3B496002694B6849316740063D8AC
:104780000600B70700FFFD177D8C930709409306CD
:10479000E07F63CFF60E93D634009314D401260441
:1047A000D58C318093F7F77F21BB328532C4EF106F
:1047B000501693065501F147130705022246E3D12F
:1047C000D7DC6115B317A6008145F9B3EF1070145B
:1047D00013075501F145930705022246B246E3D57A
:1047E000E5D461153314AA00814499BB85469D8E9A
:1047F000B1E71309E941B3972401B3D4D4003319C5
:104800002401B337F000B3649900DD8C93F7740092
:10481000B356D40081CF93F7F40011466388C700E4
:1048200093874400B3B49700A696BE8493978600FE
:1048300063D8070485470144814459B113068003B6
:10484000E341D6CC7D46E356D6FA0556B307F6408B
:10485000930500023356F4006387B6001309E94359
:10486000B3172401DD8CB3349000D18C93F674001F
:10487000014499CA93F7F40011468146E392C7FABE
:10488000139496003180F6068D80D58C81470DB942
:104890009307F07F0144814425B142896DBD3707FC
:1048A00010007D1701113373B70093D84601758F3F
:1048B000935ED60122CC26CA0E0393D445019357AA
:1048C000D5010E0706CE4AC84EC693F8F87F130EE0
:1048D000F07F33E7EE0093F4F47F13D4F50133E374
:1048E0006700131F3500FD82931E36006380C819D0
:1048F00093C61600B38514416305D4126351B018F2
:10490000638B081AB70780005D8F6381C4599307D2
:10491000800363C4B734FD4763C5B74893070002FB
:104920008D8FB3D9BE003318F700B39EFE003368F5
:1049300038013357B700B339D00133683801330336
:10494000E340B3090F41B3373F013306F3409317F8
:10495000860063D30724370980007D193379260147
:10496000630F092C4A85EF10C07A130785FF930760
:104970000002998FB3D7F9003316E900D18FB399AC
:10498000E9006344972A058F13061700FD4663C5A7
:10499000C63A13070002118FB3D6C9003398E90055
:1049A0003397E700558F33380001B369070133D6D9
:1049B000C700814493F7790081CF93F6F9009147BE
:1049C0006388F6009386490033B836014296B6896B
:1049D0009317860063D6071C138714009307F07F94
:1049E00005886306F720B70780FFFD17F18F13983E
:1049F000D70193D93900A60733683801B1831377FB
:104A0000F77F9396C7005207B1827E04D98EC18E7C
:104A1000F2406244D2444249B2494285B6850561BA
:104A200082806356B00A638A0812B70780005D8FE0
:104A30006387C42D9307800363C7B718FD4763D20C
:104A4000B73C138805FE93070002B3590701638A38
:104A5000F50093070004B385B7403317B700B3EEF2
:104A6000EE003338D0013368380195A2B367D7011F
:104A70009385148099E393C61600630AD404D1E1A8
:104A80009387140093F7E77F6399071EB367E301E9
:104A90003368D701639204166382073C63160842A9
:104AA000131835009316D3011358380033E8060164
:104AB0009357330019A2B367D7016385071A938709
:104AC000F5FF638B073A638CC523BE8589B563996F
:104AD000051C9386140093F7E67FC1EFB367E301EB
:104AE00063900436638D0744B367D7016394074628
:104AF0000E051318D3010D813368A80093573300B6
:104B00006DA8B385984063970420B367E301638D74
:104B100007309387F5FF638907401305F07F6383B0
:104B2000A520BE859307800363C2B72AFD4763C8EB
:104B3000B73C930700028D8F3318F3003356BF0044
:104B4000B317FF003368C800B339F0003353B30024
:104B50003368380133076740B5ACB367D701638367
:104B600007109387F5FF638F071E6380C52FBE85EF
:104B7000D1B59307F07F638BF606FA9E33B6EE014C
:104B8000B307E300B2971398F70193DE1E00B369F1
:104B9000D80113D61700B68493F77900E39F07E096
:104BA0009317D60113D839003368F800A6859357B8
:104BB00036001307F07F6380E506B207B18313F771
:104BC000F57F05883DBD3367D7013338E000B30971
:104BD000E801B3B7E9013386670093178600E3DD88
:104BE00007FA85049307F07F639CF4180588130780
:104BF000F07F8147014831B5639107106301083C9C
:104C0000131836009317D701135838003368F8008B
:104C1000368493573700B367F800E9DB0144130784
:104C2000F07FB70708000148E9BB370680FF7D1613
:104C30007D8E93F77900998CE39107D895B74E85CF
:104C4000EF10204D13078501FD47E3D2E7D213068D
:104C500085FFB397C90081492DB33368D701333835
:104C60000001C5B1131835009317D301135838004C
:104C70003368F800935733002DBFB309DF41330980
:104C8000E34033363F013309C9409317890063CAB3
:104C9000072033E82901E31508CC8147014431BFDF
:104CA000B385984063810414B70680009307F07FB2
:104CB0003363D3006381F8209307800363CCB7226A
:104CC000FD4763C9B72C930700028D8F3318F3009B
:104CD000B356BF00B317FF003368D800B339F000F4
:104CE0003353B300336838011A97B309D801B3B707
:104CF000D9013386E700C684CDB5E31108F2131855
:104D000035009317D301135838003368F8009357D0
:104D1000330011B7370580009307F07F3363A3009A
:104D2000E392F8E00E061318D7010D823368C8002D
:104D3000935737003684C5B505179306000233D75D
:104D4000E700630AD600930600043386C640339614
:104D5000C700B3E9C90033383001B369E800014640
:104D600081441DBDB309DF01B307E30033BFE9018F
:104D70003386E701931786008544E3DF07E0894423
:104D8000B70780FFFD17F18F13D7190013F819002B
:104D9000336807019399F701B3E9090113D61700A6
:104DA00011B9138805FE93070002B3590701638AFE
:104DB000F50093070004B385B7403317B700B3EE8F
:104DC000EE003338D00133683801A5BE3363E30108
:104DD00033386000B3890E41B3B73E013306F74064
:104DE000C6843684ADB6B367E3016387071893873B
:104DF000F5FF638C071C9306F07F638ED50ABE8592
:104E000065BD930700028D8FB3D9BE003318F7003C
:104E1000B39EFE00336838013357B700B339D00171
:104E2000336838013A9365B3131836009317D701E6
:104E30001358380033E8070136849357370095BB81
:104E4000BDCB3367D701E31B07DC0E051318D30175
:104E50000D813368A8009357330075BBE30F08E258
:104E6000131836009317D701135838003368F80029
:104E700036849357370091B3B309DF41B307E3405A
:104E8000333F3F013386E7418544D1B413183500E1
:104E90009316D3011358380033E8060193573300B3
:104EA0009DBBB389EE413306674033B93E013309F8
:104EB0002641368475B40E061318D7010D82336867
:104EC000C8009357370081BBB309DF41B307E34004
:104ED00033363F013386C7409317860063D7070AEE
:104EE000B389EE41B3076740B3BE3E013386D74175
:104EF0003684C9B43363E30133386000FDB31388EB
:104F000005FE93070002B3590301638AF500930776
:104F10000004B385B7403313B300336F6F003338E9
:104F2000E001336838017DB5B389EE41B3076740CE
:104F3000B3BE3E013386D7413684854409BC13187D
:104F400036009317D701135838003368F800935789
:104F50003700A5B1B309DF01B307E30033BFE901AF
:104F60003386E70193178600E3D807C2B70780FFAF
:104F7000FD177D8E85440DB10E061318D7010D82E5
:104F80003368C800935737002DB133E8C900E306F2
:104F900008D019B1138805FE93070002B359030125
:104FA000638AF50093070004B385B7403313B30059
:104FB000336F6F003338E001336838013DB301448B
:104FC0001307F07FB70708002DBCB309DF01B30753
:104FD000E300B3BED9013386D70169BB13D74501BE
:104FE000B7071000FD171347F7FF13D84601FD8DD3
:104FF000F58F931657011378F87F99CA1307F07F3E
:1050000001456303E8008280D18F3335F000828050
:10501000C98D0545E5D58280411106C622C426C248
:105020000DCD9357F541B3C4A7009D8C2A842685E6
:10503000EF10200E9306E041898EA9477D8093F6FC
:10504000F67F63CDA7022D47098FB3D7E40055053E
:10505000B207B394A400B18329A0014481468147DB
:105060008144B207D206B1837E04D58FC18FB2408E
:1050700022442685BE859244410182805515B3970E
:10508000A400B207B1838144E9BF41113707800012
:105090007D1713D8750126C2935475013373A70089
:1050A00093F4F40FB376B7004AC01378F80F13598E
:1050B000F50106C622C4FD819A8726854A86131EFD
:1050C0003300939E3600B3880441630AB90E6350DF
:1050D000100D630408149307F00F638BF414B707E3
:1050E0000004B3EEFE00ED4763C1172993070002E9
:1050F000B3871741B397FE00B3D81E01B337F00052
:10510000B3E7F800B307FE4013975700635E071834
:10511000370400047D147D8C2285EF00907F6D158F
:10512000B317A4006348951A058D130415001307DF
:105130000002018F3397E7003337E000B3D78700D1
:10514000D98F814413F7770019C713F7F7009146F9
:105150006303D700910713975700635B0714850417
:105160001307F00F4A866383E4169A07A58313F5A5
:10517000F40FB2402244A6079314750113D597008B
:10518000458D7E0692440249518D4101828063998A
:10519000080A138714001377E70F63170714639047
:1051A0000422630D0E1EE3860EFCB307DE41139747
:1051B000570063500722B387CE412E8961B7635CE5
:1051C000100B630E08089307F00F6383F406B7070C
:1051D0000004B3EEFE00ED4763C9171F93070002FA
:1051E000B3871741B397FE00B3D81E01B337F00061
:1051F000B3E7F800F297139757006357070A85043F
:105200001307F00F6384E40CB706007E13D7170072
:10521000FD16858B758FD98F35B7638D0E08FD18F8
:10522000B307DE41E38208EE9307F00FE39DF4EA53
:10523000630D030801461305F00FB707400015BFC3
:1052400033079840EDE863020E147D1763080718D2
:105250009307F00F6319F80E2E893683D1BF638B45
:105260000E04FD18B307DE01E38708F89307F00F7B
:10527000E393F4F675BF63950808850413F7E40F0C
:105280006313071263170510630F0E14E3830EEE0A
:10529000B307DE01139757008144635707003707B0
:1052A00000FC7D17F98F854413F77700E31F07E8AB
:1052B00013D337009307F00FE38CF4F693179300A2
:1052C000A58313F5F40F4A866DB54A861305F00FD2
:1052D000814745B5370700FC7D17F98F13F7770035
:1052E000898CE31407E6E9B73304DE4193175400D1
:1052F00063C3070CE31204E201460145814795BDF3
:1053000033079840ADC49307F00FE308F8F4B707EC
:105310000004336EFE00ED4763CCE70C93070002F8
:10532000998FB317FE003357EE00B337F000D98FD3
:10533000F697C284C9B59307F00FE30FF8F0B707EB
:105340000004336EFE00ED4763C3E70893060002D6
:10535000998EB316DE00B357EE003337D000D98FE5
:10536000B387FE40C2842E8945B3854761BB630E77
:105370000E067D17B307DE01C284E30E07E693072E
:10538000F00FE31AF8F8368365B53683C2842E89A8
:1053900015B7E3040EECE38D0EE869BD638D0E02D4
:1053A0002E86B687F9B39307F00FE381F4F2B307C3
:1053B000DE018583D5BD3384CE412E89B1BBE31C8C
:1053C0000EFCE3890EE62E8949BD854725B5854744
:1053D00041BFE39B07EC0146814761BBB387CE41E8
:1053E000C2842E8915B3B68769B33683C284D9B512
:1053F00085473DBF3971935775014AD856D25ECE65
:10540000931A95001359F50106DE22DC26DA4ED6F2
:1054100052D45AD093F7F70F93DA9A00CA8B63826B
:1054200007121307F00F6384E7128E0A3707000490
:10543000B3EAEA00138A17F80144014B93D77501C8
:105440009394950093F7F70FA58093D9F501FDC7C5
:105450001307F00F6387E7028E04938717F8370767
:105460000004D98C330AFA408146558C1727000076
:105470001307C7180A043A941C4033493901BA97F4
:105480008287130A1AF0F9E88946558C172700001D
:105490001307C71A0A043A941C4033493901BA97D2
:1054A000828701491307F00FB70740001395970053
:1054B000F25062549317770125817E095D8D336523
:1054C0002501D2544259B259225A925A025BF24BE8
:1054D000216182801307F00F8147C9BFA68ACE8B56
:1054E000368B8947630BFB1A8D47E30CFBFA854724
:1054F000630AFB0A1307FA0713F91B006357E0124C
:1055000093F77A0099C793F7FA0091466383D7001F
:10551000910A93974A0063D90700B70700F8FD176F
:10552000B3FAFA0013070A089307E00FE3C4E7FA97
:1055300093976A00A5831377F70F8DBFB9E485466B
:10554000A9B763940A021144014A054BC5BD63998A
:105550000A002144130AF00F094BCDB58D4631B72F
:105560003144130AF00F0D4BD1BD56852EC6EF0006
:10557000503A9307B5FFB39AFA009307A0F8338A1D
:10558000A7400144014BB24555BD2685EF00703858
:105590001307B5FFB307AA00B394E400138A6707A3
:1055A0008146E1B513F91B000147814701B7416608
:1055B000139554007D1693570501698E63FA9A0A74
:1055C000B3D5FA027D1AD68601473388C502B3F6F1
:1055D000F602C206558F637B07012A979386F5FF73
:1055E0006368A70A6376070BF9152A973307074103
:1055F000B356F7023377F702B38AC602931707014F
:1056000063FB5701AA971387F6FF63E1A70863FFBF
:105610005707F916AA97C205B38A5741D58DB33AF1
:105620005001B3EA5501CA8BF1B58546998E11C771
:105630006D4601478147E34BD6E6130AEA09339AE0
:105640004A01B3D7DA00B33A4001B3E7570113F781
:10565000770019C713F7F70091466303D700910746
:1056600013975700634807029A07A58301473DBD7A
:1056700093D61A00B3D5F6021397FA014183338803
:10568000C502B1B7CE8B368B814AA1BDBA8661B750
:10569000B685A9BF0547814711BD13F91B00130744
:1056A000F00F814721B593567501B7078000FD17AC
:1056B00013D6750193F6F60F1308F00FB3F8A70091
:1056C0001357F501ED8F1376F60FFD816381060305
:1056D000630C06018DE211E2B1C3638E080263051B
:1056E000B70405451DE78280F5D779558280E39E92
:1056F00008FE6309D60211E2EDD7E314B7FEE342D8
:10570000D6FE63C7C600E3EE17FD0145E3FDF8FCD6
:1057100001E77D558280F5DD054582800145E392F4
:1057200008FC8280F9DBD1B78146E1BF9356750151
:10573000B7078000FD1713D6750193F6F60F13080F
:10574000F00FB3F8A7001357F501ED8F1376F60F9E
:10575000FD81638706036309060185EA11EA89EB87
:105760000145639B080082800945F5FFE5DA31A811
:10577000638C08026300B704054575D77D558280A8
:105780000945639808026304D60211E2F5D7E315D0
:10579000B7FEE343D6FE63C7C600E3EF17FD01453E
:1057A000E3F3F8FC19E3D9BFF1D905458280E5D3CD
:1057B000828082808146C5B7797122D413547501E5
:1057C0004ECE52CC9319950006D626D24AD056CA50
:1057D0005AC81374F40F93D99900135AF50169C488
:1057E0009307F00F6308F40E93973900370700040E
:1057F000B3E9E700130414F88144014B13D7750192
:10580000939A95001377F70F93DA9A0013D9F5015D
:1058100045CF9307F00F630CF7028E0A130717F8B2
:10582000B7070004B3EAFA003A94014633452A0167
:10583000BD47AA869305140063E29710172700005E
:105840001307C7E38A04BA949C40BA97828713046B
:10585000F40F63980A0C93E424000946C1BF014584
:105860001307F00FB7074000B2502254A6075E0797
:10587000A5837E05D98F92540259F249624AD24AD1
:10588000424B5D8D45618280CA86D689328B8947BD
:105890006301FB0A8D47E304FBFC854736856312F1
:1058A000FB1A01478147C9B7639E090413D77501E5
:1058B000939A95001377F70F91440144054B93DABF
:1058C0009A0013D9F50131F7639D0A0093E414009F
:1058D0000546A9BF63930902A1441304F00F094BC5
:1058E00031BF5685EF00F0029307B5FF098CB39ADC
:1058F000FA001304A4F8014615BFB1441304F00FD5
:105900000D4BEDBD4E852EC6EF00B0009307B5FFE1
:105910001304A0F8B399F900098C8144014BB245F6
:10592000F1BD93E434000D4611B78947D286E313E5
:10593000FBF636851307F00F81473DB741639306A9
:10594000F3FF13D6090193D80A01B3F7D900B3FACC
:10595000DA0033885703B389F80213570801B30AF2
:105960005603D6994E9733061603637357011A965A
:10597000C167FD17B376F7003378F800C206C29608
:105980009399660093570701B3393001E982B297C2
:105990009A07B3E6D900B3E9D7009397490063D9D2
:1059A000070013D7190093F71900B369F7002E8485
:1059B0001307F4076350E00493F7790099C793F74E
:1059C000F90091466383D70091099397490063D901
:1059D0000700B70700F8FD17B3F9F900130704082B
:1059E0009307E00F63CBE70493976900A5831377D0
:1059F000F70F9DBD8547B386E74011C76D46014748
:105A00008147E343D6E61307E4093397E9003337C8
:105A1000E000B3D7D900D98F13F7770019C713F770
:105A2000F70091466303D700910713975700634C23
:105A300007009A07A583014705BD1307F00F8147AB
:105A400025B52E84B5B70547814739BD3707800096
:105A500041117D179356750113D87501B377A700CF
:105A600093F6F60F935EF5013376B70026C24AC06F
:105A70001378F80F06C622C41303F00F3E8E368942
:105A8000F684139F3700FD8113153600B388064155
:105A90006302681093C51500638CBE106354100D2B
:105AA000631008106304051EFD18B307AF4063863A
:105AB00008029307F00F6388F616ED4763C71729AE
:105AC00013070002330717413317E500B3571501D9
:105AD0003337E000D98FB307FF4013975700635166
